{"abi":[{"type":"constructor","inputs":[],"stateMutability":"nonpayable"},{"type":"function","name":"GetFunction","inputs":[],"outputs":[{"name":"id","type":"uint256","internalType":"uint256"},{"name":"commandType","type":"uint8","internalType":"enum DeviceControl.CommandType"},{"name":"data","type":"string","internalType":"string"},{"name":"timestamp","type":"uint256","internalType":"uint256"}],"stateMutability":"view"},{"type":"function","name":"Trigger","inputs":[{"name":"commandType","type":"uint8","internalType":"enum DeviceControl.CommandType"},{"name":"data","type":"string","internalType":"string"}],"outputs":[],"stateMutability":"nonpayable"},{"type":"function","name":"admin","inputs":[],"outputs":[{"name":"","type":"address","internalType":"address"}],"stateMutability":"view"},{"type":"function","name":"commands","inputs":[{"name":"","type":"uint256","internalType":"uint256"}],"outputs":[{"name":"id","type":"uint256","internalType":"uint256"},{"name":"commandType","type":"uint8","internalType":"enum DeviceControl.CommandType"},{"name":"data","type":"string","internalType":"string"},{"name":"timestamp","type":"uint256","internalType":"uint256"},{"name":"triggeredBy","type":"address","internalType":"address"}],"stateMutability":"view"},{"type":"function","name":"currentCommandId","inputs":[],"outputs":[{"name":"","type":"uint256","internalType":"uint256"}],"stateMutability":"view"},{"type":"function","name":"getCommand","inputs":[{"name":"commandId","type":"uint256","internalType":"uint256"}],"outputs":[{"name":"id","type":"uint256","internalType":"uint256"},{"name":"commandType","type":"uint8","internalType":"enum DeviceControl.CommandType"},{"name":"data","type":"string","internalType":"string"},{"name":"timestamp","type":"uint256","internalType":"uint256"},{"name":"triggeredBy","type":"address","internalType":"address"}],"stateMutability":"view"},{"type":"function","name":"getLatestCommandId","inputs":[],"outputs":[{"name":"","type":"uint256","internalType":"uint256"}],"stateMutability":"view"},{"type":"function","name":"transferAdmin","inputs":[{"name":"newAdmin","type":"address","internalType":"address"}],"outputs":[],"stateMutability":"nonpayable"},{"type":"event","name":"AdminUpdated","inputs":[{"name":"oldAdmin","type":"address","indexed":true,"internalType":"address"},{"name":"newAdmin","type":"address","indexed":true,"internalType":"address"}],"anonymous":false},{"type":"event","name":"CommandTriggered","inputs":[{"name":"commandId","type":"uint256","indexed":true,"internalType":"uint256"},{"name":"timestamp","type":"uint256","indexed":false,"internalType":"uint256"},{"name":"commandType","type":"uint8","indexed":false,"internalType":"enum DeviceControl.CommandType"}],"anonymous":false}],"bytecode":{"object":"0x6080604052348015600e575f5ffd5b505f80546001600160a01b03191633178155600155610aec806100305f395ff3fe608060405234801561000f575f5ffd5b5060043610610085575f3560e01c80637151e780116100585780637151e780146100e457806375829def146100f9578063778e82bf1461010c578063f851a44014610124575f5ffd5b806311438b38146100895780632120ba6f146100b6578063383dc71b146100c95780636ca77f4a146100db575b5f5ffd5b61009c610097366004610744565b61014e565b6040516100ad9594939291906107bd565b60405180910390f35b61009c6100c4366004610744565b610211565b6001545b6040519081526020016100ad565b6100cd60015481565b6100f76100f2366004610804565b61039a565b005b6100f7610107366004610887565b61050e565b6101146105ce565b6040516100ad94939291906108b4565b5f54610136906001600160a01b031681565b6040516001600160a01b0390911681526020016100ad565b600260208190525f9182526040909120805460018201549282018054919360ff16929161017a906108ea565b80601f01602080910402602001604051908101604052809291908181526020018280546101a6906108ea565b80156101f15780601f106101c8576101008083540402835291602001916101f1565b820191905f5260205f20905b8154815290600101906020018083116101d457829003601f168201915b5050505060038301546004909301549192916001600160a01b0316905085565b5f5f60605f5f5f8611801561022857506001548611155b61026e5760405162461bcd60e51b8152602060048201526012602482015271125b9d985b1a590818dbdb5b585b9908125160721b60448201526064015b60405180910390fd5b5f868152600260209081526040808320815160a0810190925280548252600180820154929391929184019160ff16908111156102ac576102ac61075b565b60018111156102bd576102bd61075b565b81526020016002820180546102d1906108ea565b80601f01602080910402602001604051908101604052809291908181526020018280546102fd906108ea565b80156103485780601f1061031f57610100808354040283529160200191610348565b820191905f5260205f20905b81548152906001019060200180831161032b57829003601f168201915b505050918352505060038201546020808301919091526004909201546001600160a01b0316604091820152825191830151908301516060840151608090940151929b919a509850919650945092505050565b5f546001600160a01b031633146103c35760405162461bcd60e51b815260040161026590610922565b60018054905f6103d283610963565b91905055506040518060a0016040528060015481526020018460018111156103fc576103fc61075b565b815260200183838080601f0160208091040260200160405190810160405280939291908181526020018383808284375f920182905250938552505042602080850191909152336040948501526001805484526002825293909220845181559184015182840180549394919390925060ff19169083818111156104805761048061075b565b02179055506040820151600282019061049990826109e7565b5060608201516003820155608090910151600490910180546001600160a01b0319166001600160a01b039092169190911790556001546040517f479e4ac6c793f6dee7af2e5a69dc38f5449c6b69129fa0572890986763a51128906105019042908790610aa2565b60405180910390a2505050565b5f546001600160a01b031633146105375760405162461bcd60e51b815260040161026590610922565b6001600160a01b03811661057f5760405162461bcd60e51b815260206004820152600f60248201526e496e76616c6964206164647265737360881b6044820152606401610265565b5f80546001600160a01b038381166001600160a01b0319831681178455604051919092169283917f101b8081ff3b56bbf45deb824d86a3b0fd38b7e3dd42421105cf8abe9106db0b9190a35050565b5f5f60605f5f6001541161061b5760405162461bcd60e51b81526020600482015260146024820152734e6f20636f6d6d616e6420617661696c61626c6560601b6044820152606401610265565b600180545f908152600260209081526040808320815160a08101909252805482528085015493949193909284019160ff9091169081111561065e5761065e61075b565b600181111561066f5761066f61075b565b8152602001600282018054610683906108ea565b80601f01602080910402602001604051908101604052809291908181526020018280546106af906108ea565b80156106fa5780601f106106d1576101008083540402835291602001916106fa565b820191905f5260205f20905b8154815290600101906020018083116106dd57829003601f168201915b505050918352505060038201546020808301919091526004909201546001600160a01b03166040918201528251918301519083015160609093015191989097509195509350915050565b5f60208284031215610754575f5ffd5b5035919050565b634e487b7160e01b5f52602160045260245ffd5b6002811061078b57634e487b7160e01b5f52602160045260245ffd5b9052565b5f81518084528060208401602086015e5f602082860101526020601f19601f83011685010191505092915050565b8581526107cd602082018661076f565b60a060408201525f6107e260a083018661078f565b6060830194909452506001600160a01b03919091166080909101529392505050565b5f5f5f60408486031215610816575f5ffd5b833560028110610824575f5ffd5b9250602084013567ffffffffffffffff81111561083f575f5ffd5b8401601f8101861361084f575f5ffd5b803567ffffffffffffffff811115610865575f5ffd5b866020828401011115610876575f5ffd5b939660209190910195509293505050565b5f60208284031215610897575f5ffd5b81356001600160a01b03811681146108ad575f5ffd5b9392505050565b8481526108c4602082018561076f565b608060408201525f6108d9608083018561078f565b905082606083015295945050505050565b600181811c908216806108fe57607f821691505b60208210810361091c57634e487b7160e01b5f52602260045260245ffd5b50919050565b60208082526021908201527f4f6e6c792061646d696e2063616e2063616c6c20746869732066756e6374696f6040820152603760f91b606082015260800190565b5f6001820161098057634e487b7160e01b5f52601160045260245ffd5b5060010190565b634e487b7160e01b5f52604160045260245ffd5b601f8211156109e257805f5260205f20601f840160051c810160208510156109c05750805b601f840160051c820191505b818110156109df575f81556001016109cc565b50505b505050565b815167ffffffffffffffff811115610a0157610a01610987565b610a1581610a0f84546108ea565b8461099b565b6020601f821160018114610a47575f8315610a305750848201515b5f19600385901b1c1916600184901b1784556109df565b5f84815260208120601f198516915b82811015610a765787850151825560209485019460019092019101610a56565b5084821015610a9357868401515f19600387901b60f8161c191681555b50505050600190811b01905550565b828152604081016108ad602083018461076f56fea26469706673582212206d1ce9a426fd55b323de4406f39c09be1c2e12cbc4929dc7df7acce2c450100864736f6c634300081c0033","linkReferences":{}},"methodIdentifiers":{"GetFunction()":"778e82bf","Trigger(uint8,string)":"7151e780","admin()":"f851a440","commands(uint256)":"11438b38","currentCommandId()":"6ca77f4a","getCommand(uint256)":"2120ba6f","getLatestCommandId()":"383dc71b","transferAdmin(address)":"75829def"},"id":17}