{"abi":[{"type":"constructor","inputs":[],"stateMutability":"nonpayable"},{"type":"function","name":"GetFunction","inputs":[],"outputs":[{"name":"id","type":"uint256","internalType":"uint256"},{"name":"commandType","type":"uint8","internalType":"enum DeviceControl.CommandType"},{"name":"data","type":"string","internalType":"string"},{"name":"timestamp","type":"uint256","internalType":"uint256"},{"name":"backendCommandId","type":"string","internalType":"string"}],"stateMutability":"view"},{"type":"function","name":"Trigger","inputs":[{"name":"commandType","type":"uint8","internalType":"enum DeviceControl.CommandType"},{"name":"data","type":"string","internalType":"string"},{"name":"backendCommandId","type":"string","internalType":"string"}],"outputs":[],"stateMutability":"nonpayable"},{"type":"function","name":"admin","inputs":[],"outputs":[{"name":"","type":"address","internalType":"address"}],"stateMutability":"view"},{"type":"function","name":"commands","inputs":[{"name":"","type":"uint256","internalType":"uint256"}],"outputs":[{"name":"id","type":"uint256","internalType":"uint256"},{"name":"commandType","type":"uint8","internalType":"enum DeviceControl.CommandType"},{"name":"data","type":"string","internalType":"string"},{"name":"timestamp","type":"uint256","internalType":"uint256"},{"name":"triggeredBy","type":"address","internalType":"address"},{"name":"backendCommandId","type":"string","internalType":"string"}],"stateMutability":"view"},{"type":"function","name":"currentCommandId","inputs":[],"outputs":[{"name":"","type":"uint256","internalType":"uint256"}],"stateMutability":"view"},{"type":"function","name":"getCommand","inputs":[{"name":"commandId","type":"uint256","internalType":"uint256"}],"outputs":[{"name":"id","type":"uint256","internalType":"uint256"},{"name":"commandType","type":"uint8","internalType":"enum DeviceControl.CommandType"},{"name":"data","type":"string","internalType":"string"},{"name":"timestamp","type":"uint256","internalType":"uint256"},{"name":"triggeredBy","type":"address","internalType":"address"},{"name":"backendCommandId","type":"string","internalType":"string"}],"stateMutability":"view"},{"type":"function","name":"getLatestCommandId","inputs":[],"outputs":[{"name":"","type":"uint256","internalType":"uint256"}],"stateMutability":"view"},{"type":"function","name":"transferAdmin","inputs":[{"name":"newAdmin","type":"address","internalType":"address"}],"outputs":[],"stateMutability":"nonpayable"},{"type":"event","name":"AdminUpdated","inputs":[{"name":"oldAdmin","type":"address","indexed":true,"internalType":"address"},{"name":"newAdmin","type":"address","indexed":true,"internalType":"address"}],"anonymous":false},{"type":"event","name":"CommandTriggered","inputs":[{"name":"commandId","type":"uint256","indexed":true,"internalType":"uint256"},{"name":"timestamp","type":"uint256","indexed":false,"internalType":"uint256"},{"name":"commandType","type":"uint8","indexed":false,"internalType":"enum DeviceControl.CommandType"},{"name":"backendCommandId","type":"string","indexed":false,"internalType":"string"}],"anonymous":false}],"bytecode":{"object":"0x6080604052348015600e575f5ffd5b505f80546001600160a01b03191633178155600155610db0806100305f395ff3fe608060405234801561000f575f5ffd5b5060043610610085575f3560e01c806375829def1161005857806375829def146100e5578063778e82bf146100fa578063c89a6ae214610113578063f851a44014610126575f5ffd5b806311438b38146100895780632120ba6f146100b7578063383dc71b146100ca5780636ca77f4a146100dc575b5f5ffd5b61009c61009736600461096c565b610150565b6040516100ae969594939291906109e5565b60405180910390f35b61009c6100c536600461096c565b6102a3565b6001545b6040519081526020016100ae565b6100ce60015481565b6100f86100f3366004610a3f565b6104c9565b005b610102610589565b6040516100ae959493929190610a6c565b6100f8610121366004610afa565b61079b565b5f54610138906001600160a01b031681565b6040516001600160a01b0390911681526020016100ae565b600260208190525f9182526040909120805460018201549282018054919360ff16929161017c90610b7f565b80601f01602080910402602001604051908101604052809291908181526020018280546101a890610b7f565b80156101f35780601f106101ca576101008083540402835291602001916101f3565b820191905f5260205f20905b8154815290600101906020018083116101d657829003601f168201915b5050505060038301546004840154600585018054949592946001600160a01b0390921693509061022290610b7f565b80601f016020809104026020016040519081016040528092919081815260200182805461024e90610b7f565b80156102995780601f1061027057610100808354040283529160200191610299565b820191905f5260205f20905b81548152906001019060200180831161027c57829003601f168201915b5050505050905086565b5f5f60605f5f60605f871180156102bc57506001548711155b6103025760405162461bcd60e51b8152602060048201526012602482015271125b9d985b1a590818dbdb5b585b9908125160721b60448201526064015b60405180910390fd5b5f878152600260209081526040808320815160c0810190925280548252600180820154929391929184019160ff169081111561034057610340610983565b600181111561035157610351610983565b815260200160028201805461036590610b7f565b80601f016020809104026020016040519081016040528092919081815260200182805461039190610b7f565b80156103dc5780601f106103b3576101008083540402835291602001916103dc565b820191905f5260205f20905b8154815290600101906020018083116103bf57829003601f168201915b50505091835250506003820154602082015260048201546001600160a01b0316604082015260058201805460609092019161041690610b7f565b80601f016020809104026020016040519081016040528092919081815260200182805461044290610b7f565b801561048d5780601f106104645761010080835404028352916020019161048d565b820191905f5260205f20905b81548152906001019060200180831161047057829003601f168201915b5050509190925250508151602083015160408401516060850151608086015160a090960151939e929d50909b5099509297509550909350505050565b5f546001600160a01b031633146104f25760405162461bcd60e51b81526004016102f990610bb7565b6001600160a01b03811661053a5760405162461bcd60e51b815260206004820152600f60248201526e496e76616c6964206164647265737360881b60448201526064016102f9565b5f80546001600160a01b038381166001600160a01b0319831681178455604051919092169283917f101b8081ff3b56bbf45deb824d86a3b0fd38b7e3dd42421105cf8abe9106db0b9190a35050565b5f5f60605f60605f600154116105d85760405162461bcd60e51b81526020600482015260146024820152734e6f20636f6d6d616e6420617661696c61626c6560601b60448201526064016102f9565b600180545f908152600260209081526040808320815160c08101909252805482528085015493949193909284019160ff9091169081111561061b5761061b610983565b600181111561062c5761062c610983565b815260200160028201805461064090610b7f565b80601f016020809104026020016040519081016040528092919081815260200182805461066c90610b7f565b80156106b75780601f1061068e576101008083540402835291602001916106b7565b820191905f5260205f20905b81548152906001019060200180831161069a57829003601f168201915b50505091835250506003820154602082015260048201546001600160a01b031660408201526005820180546060909201916106f190610b7f565b80601f016020809104026020016040519081016040528092919081815260200182805461071d90610b7f565b80156107685780601f1061073f57610100808354040283529160200191610768565b820191905f5260205f20905b81548152906001019060200180831161074b57829003601f168201915b505050919092525050815160208301516040840151606085015160a090950151929b919a50985092965094509092505050565b5f546001600160a01b031633146107c45760405162461bcd60e51b81526004016102f990610bb7565b60018054905f6107d383610bf8565b91905055506040518060c0016040528060015481526020018660018111156107fd576107fd610983565b815260200185858080601f0160208091040260200160405190810160405280939291908181526020018383808284375f9201919091525050509082525042602080830191909152336040808401919091528051601f86018390048302810183019091528481526060909201919085908590819084018382808284375f920182905250939094525050600180548252600260209081526040909220845181559184015182820180549394509092909160ff199091169083818111156108c3576108c3610983565b0217905550604082015160028201906108dc9082610c7c565b506060820151600382015560808201516004820180546001600160a01b0319166001600160a01b0390921691909117905560a082015160058201906109219082610c7c565b509050506001547fd0241377da3f4638ed27aedb95bad4870241e9acf3ace261b9fc6410f9da0e584287858560405161095d9493929190610d37565b60405180910390a25050505050565b5f6020828403121561097c575f5ffd5b5035919050565b634e487b7160e01b5f52602160045260245ffd5b600281106109b357634e487b7160e01b5f52602160045260245ffd5b9052565b5f81518084528060208401602086015e5f602082860101526020601f19601f83011685010191505092915050565b8681526109f56020820187610997565b60c060408201525f610a0a60c08301876109b7565b606083018690526001600160a01b038516608084015282810360a0840152610a3281856109b7565b9998505050505050505050565b5f60208284031215610a4f575f5ffd5b81356001600160a01b0381168114610a65575f5ffd5b9392505050565b858152610a7c6020820186610997565b60a060408201525f610a9160a08301866109b7565b8460608401528281036080840152610aa981856109b7565b98975050505050505050565b5f5f83601f840112610ac5575f5ffd5b50813567ffffffffffffffff811115610adc575f5ffd5b602083019150836020828501011115610af3575f5ffd5b9250929050565b5f5f5f5f5f60608688031215610b0e575f5ffd5b853560028110610b1c575f5ffd5b9450602086013567ffffffffffffffff811115610b37575f5ffd5b610b4388828901610ab5565b909550935050604086013567ffffffffffffffff811115610b62575f5ffd5b610b6e88828901610ab5565b969995985093965092949392505050565b600181811c90821680610b9357607f821691505b602082108103610bb157634e487b7160e01b5f52602260045260245ffd5b50919050565b60208082526021908201527f4f6e6c792061646d696e2063616e2063616c6c20746869732066756e6374696f6040820152603760f91b606082015260800190565b5f60018201610c1557634e487b7160e01b5f52601160045260245ffd5b5060010190565b634e487b7160e01b5f52604160045260245ffd5b601f821115610c7757805f5260205f20601f840160051c81016020851015610c555750805b601f840160051c820191505b81811015610c74575f8155600101610c61565b50505b505050565b815167ffffffffffffffff811115610c9657610c96610c1c565b610caa81610ca48454610b7f565b84610c30565b6020601f821160018114610cdc575f8315610cc55750848201515b5f19600385901b1c1916600184901b178455610c74565b5f84815260208120601f198516915b82811015610d0b5787850151825560209485019460019092019101610ceb565b5084821015610d2857868401515f19600387901b60f8161c191681555b50505050600190811b01905550565b848152610d476020820185610997565b60606040820152816060820152818360808301375f818301608090810191909152601f909201601f19160101939250505056fea2646970667358221220512adc08b8abbaf7512953e7144ba8860c9f5fd4bd1c6441a1ee1e12d0dd7a5964736f6c634300081c0033","linkReferences":{}},"methodIdentifiers":{"GetFunction()":"778e82bf","Trigger(uint8,string,string)":"c89a6ae2","admin()":"f851a440","commands(uint256)":"11438b38","currentCommandId()":"6ca77f4a","getCommand(uint256)":"2120ba6f","getLatestCommandId()":"383dc71b","transferAdmin(address)":"75829def"},"id":22}